{
  "_format": "hh-sol-artifact-1",
  "contractName": "MockIdentity",
  "sourceName": "contracts/MockIdentity.sol",
  "abi": [
    {
      "anonymous": false,
      "inputs": [
        {
          "indexed": true,
          "internalType": "address",
          "name": "user",
          "type": "address"
        }
      ],
      "name": "Verified",
      "type": "event"
    },
    {
      "inputs": [
        {
          "internalType": "address",
          "name": "user",
          "type": "address"
        }
      ],
      "name": "hasPassed",
      "outputs": [
        {
          "internalType": "bool",
          "name": "",
          "type": "bool"
        }
      ],
      "stateMutability": "view",
      "type": "function"
    },
    {
      "inputs": [
        {
          "internalType": "address",
          "name": "",
          "type": "address"
        }
      ],
      "name": "isVerified",
      "outputs": [
        {
          "internalType": "bool",
          "name": "",
          "type": "bool"
        }
      ],
      "stateMutability": "view",
      "type": "function"
    },
    {
      "inputs": [],
      "name": "verifyMe",
      "outputs": [],
      "stateMutability": "nonpayable",
      "type": "function"
    }
  ],
  "bytecode": "0x608060405234801561001057600080fd5b506102bd806100206000396000f3fe608060405234801561001057600080fd5b50600436106100415760003560e01c80632a1e2f3814610046578063b9209e3314610050578063e5c7b61614610080575b600080fd5b61004e6100b0565b005b61006a60048036038101906100659190610224565b61014c565b604051610077919061026c565b60405180910390f35b61009a60048036038101906100959190610224565b61016c565b6040516100a7919061026c565b60405180910390f35b60016000803373ffffffffffffffffffffffffffffffffffffffff1673ffffffffffffffffffffffffffffffffffffffff16815260200190815260200160002060006101000a81548160ff0219169083151502179055503373ffffffffffffffffffffffffffffffffffffffff167f6a6455914f452787eb3985452aceedc1000fb545e394eb3b370e3d08958e0a5b60405160405180910390a2565b60006020528060005260406000206000915054906101000a900460ff1681565b60008060008373ffffffffffffffffffffffffffffffffffffffff1673ffffffffffffffffffffffffffffffffffffffff16815260200190815260200160002060009054906101000a900460ff169050919050565b600080fd5b600073ffffffffffffffffffffffffffffffffffffffff82169050919050565b60006101f1826101c6565b9050919050565b610201816101e6565b811461020c57600080fd5b50565b60008135905061021e816101f8565b92915050565b60006020828403121561023a576102396101c1565b5b60006102488482850161020f565b91505092915050565b60008115159050919050565b61026681610251565b82525050565b6000602082019050610281600083018461025d565b9291505056fea26469706673582212204840aee6f75feb55c7314d3389fd95c26009cee5a7e2fb8c291750318e09d14f64736f6c63430008110033",
  "linkReferences": {},
  "deployedLinkReferences": {}
}