{"contracts/MockIdentity.sol":{"MockIdentity":{"abi":[{"anonymous":false,"inputs":[{"indexed":true,"internalType":"address","name":"user","type":"address"}],"name":"Verified","type":"event"},{"inputs":[{"internalType":"address","name":"user","type":"address"}],"name":"hasPassed","outputs":[{"internalType":"bool","name":"","type":"bool"}],"stateMutability":"view","type":"function"},{"inputs":[{"internalType":"address","name":"","type":"address"}],"name":"isVerified","outputs":[{"internalType":"bool","name":"","type":"bool"}],"stateMutability":"view","type":"function"},{"inputs":[],"name":"verifyMe","outputs":[],"stateMutability":"nonpayable","type":"function"}],"evm":{"bytecode":{"linkReferences":{},"object":"608060405234801561001057600080fd5b506102bd806100206000396000f3fe608060405234801561001057600080fd5b50600436106100415760003560e01c80632a1e2f3814610046578063b9209e3314610050578063e5c7b61614610080575b600080fd5b61004e6100b0565b005b61006a60048036038101906100659190610224565b61014c565b604051610077919061026c565b60405180910390f35b61009a60048036038101906100959190610224565b61016c565b6040516100a7919061026c565b60405180910390f35b60016000803373ffffffffffffffffffffffffffffffffffffffff1673ffffffffffffffffffffffffffffffffffffffff16815260200190815260200160002060006101000a81548160ff0219169083151502179055503373ffffffffffffffffffffffffffffffffffffffff167f6a6455914f452787eb3985452aceedc1000fb545e394eb3b370e3d08958e0a5b60405160405180910390a2565b60006020528060005260406000206000915054906101000a900460ff1681565b60008060008373ffffffffffffffffffffffffffffffffffffffff1673ffffffffffffffffffffffffffffffffffffffff16815260200190815260200160002060009054906101000a900460ff169050919050565b600080fd5b600073ffffffffffffffffffffffffffffffffffffffff82169050919050565b60006101f1826101c6565b9050919050565b610201816101e6565b811461020c57600080fd5b50565b60008135905061021e816101f8565b92915050565b60006020828403121561023a576102396101c1565b5b60006102488482850161020f565b91505092915050565b60008115159050919050565b61026681610251565b82525050565b6000602082019050610281600083018461025d565b9291505056fea26469706673582212204840aee6f75feb55c7314d3389fd95c26009cee5a7e2fb8c291750318e09d14f64736f6c63430008110033","opcodes":"PUSH1 0x80 PUSH1 0x40 MSTORE CALLVALUE DUP1 ISZERO PUSH2 0x10 JUMPI PUSH1 0x0 DUP1 REVERT JUMPDEST POP PUSH2 0x2BD DUP1 PUSH2 0x20 PUSH1 0x0 CODECOPY PUSH1 0x0 RETURN INVALID PUSH1 0x80 PUSH1 0x40 MSTORE CALLVALUE DUP1 ISZERO PUSH2 0x10 JUMPI PUSH1 0x0 DUP1 REVERT JUMPDEST POP PUSH1 0x4 CALLDATASIZE LT PUSH2 0x41 JUMPI PUSH1 0x0 CALLDATALOAD PUSH1 0xE0 SHR DUP1 PUSH4 0x2A1E2F38 EQ PUSH2 0x46 JUMPI DUP1 PUSH4 0xB9209E33 EQ PUSH2 0x50 JUMPI DUP1 PUSH4 0xE5C7B616 EQ PUSH2 0x80 JUMPI JUMPDEST PUSH1 0x0 DUP1 REVERT JUMPDEST PUSH2 0x4E PUSH2 0xB0 JUMP JUMPDEST STOP JUMPDEST PUSH2 0x6A PUSH1 0x4 DUP1 CALLDATASIZE SUB DUP2 ADD SWAP1 PUSH2 0x65 SWAP2 SWAP1 PUSH2 0x224 JUMP JUMPDEST PUSH2 0x14C JUMP JUMPDEST PUSH1 0x40 MLOAD PUSH2 0x77 SWAP2 SWAP1 PUSH2 0x26C JUMP JUMPDEST PUSH1 0x40 MLOAD DUP1 SWAP2 SUB SWAP1 RETURN JUMPDEST PUSH2 0x9A PUSH1 0x4 DUP1 CALLDATASIZE SUB DUP2 ADD SWAP1 PUSH2 0x95 SWAP2 SWAP1 PUSH2 0x224 JUMP JUMPDEST PUSH2 0x16C JUMP JUMPDEST PUSH1 0x40 MLOAD PUSH2 0xA7 SWAP2 SWAP1 PUSH2 0x26C JUMP JUMPDEST PUSH1 0x40 MLOAD DUP1 SWAP2 SUB SWAP1 RETURN JUMPDEST PUSH1 0x1 PUSH1 0x0 DUP1 CALLER PUSH20 0xFFFFFFFFFFFFFFFFFFFFFFFFFFFFFFFFFFFFFFFF AND PUSH20 0xFFFFFFFFFFFFFFFFFFFFFFFFFFFFFFFFFFFFFFFF AND DUP2 MSTORE PUSH1 0x20 ADD SWAP1 DUP2 MSTORE PUSH1 0x20 ADD PUSH1 0x0 KECCAK256 PUSH1 0x0 PUSH2 0x100 EXP DUP2 SLOAD DUP2 PUSH1 0xFF MUL NOT AND SWAP1 DUP4 ISZERO ISZERO MUL OR SWAP1 SSTORE POP CALLER PUSH20 0xFFFFFFFFFFFFFFFFFFFFFFFFFFFFFFFFFFFFFFFF AND PUSH32 0x6A6455914F452787EB3985452ACEEDC1000FB545E394EB3B370E3D08958E0A5B PUSH1 0x40 MLOAD PUSH1 0x40 MLOAD DUP1 SWAP2 SUB SWAP1 LOG2 JUMP JUMPDEST PUSH1 0x0 PUSH1 0x20 MSTORE DUP1 PUSH1 0x0 MSTORE PUSH1 0x40 PUSH1 0x0 KECCAK256 PUSH1 0x0 SWAP2 POP SLOAD SWAP1 PUSH2 0x100 EXP SWAP1 DIV PUSH1 0xFF AND DUP2 JUMP JUMPDEST PUSH1 0x0 DUP1 PUSH1 0x0 DUP4 PUSH20 0xFFFFFFFFFFFFFFFFFFFFFFFFFFFFFFFFFFFFFFFF AND PUSH20 0xFFFFFFFFFFFFFFFFFFFFFFFFFFFFFFFFFFFFFFFF AND DUP2 MSTORE PUSH1 0x20 ADD SWAP1 DUP2 MSTORE PUSH1 0x20 ADD PUSH1 0x0 KECCAK256 PUSH1 0x0 SWAP1 SLOAD SWAP1 PUSH2 0x100 EXP SWAP1 DIV PUSH1 0xFF AND SWAP1 POP SWAP2 SWAP1 POP JUMP JUMPDEST PUSH1 0x0 DUP1 REVERT JUMPDEST PUSH1 0x0 PUSH20 0xFFFFFFFFFFFFFFFFFFFFFFFFFFFFFFFFFFFFFFFF DUP3 AND SWAP1 POP SWAP2 SWAP1 POP JUMP JUMPDEST PUSH1 0x0 PUSH2 0x1F1 DUP3 PUSH2 0x1C6 JUMP JUMPDEST SWAP1 POP SWAP2 SWAP1 POP JUMP JUMPDEST PUSH2 0x201 DUP2 PUSH2 0x1E6 JUMP JUMPDEST DUP2 EQ PUSH2 0x20C JUMPI PUSH1 0x0 DUP1 REVERT JUMPDEST POP JUMP JUMPDEST PUSH1 0x0 DUP2 CALLDATALOAD SWAP1 POP PUSH2 0x21E DUP2 PUSH2 0x1F8 JUMP JUMPDEST SWAP3 SWAP2 POP POP JUMP JUMPDEST PUSH1 0x0 PUSH1 0x20 DUP3 DUP5 SUB SLT ISZERO PUSH2 0x23A JUMPI PUSH2 0x239 PUSH2 0x1C1 JUMP JUMPDEST JUMPDEST PUSH1 0x0 PUSH2 0x248 DUP5 DUP3 DUP6 ADD PUSH2 0x20F JUMP JUMPDEST SWAP2 POP POP SWAP3 SWAP2 POP POP JUMP JUMPDEST PUSH1 0x0 DUP2 ISZERO ISZERO SWAP1 POP SWAP2 SWAP1 POP JUMP JUMPDEST PUSH2 0x266 DUP2 PUSH2 0x251 JUMP JUMPDEST DUP3 MSTORE POP POP JUMP JUMPDEST PUSH1 0x0 PUSH1 0x20 DUP3 ADD SWAP1 POP PUSH2 0x281 PUSH1 0x0 DUP4 ADD DUP5 PUSH2 0x25D JUMP JUMPDEST SWAP3 SWAP2 POP POP JUMP INVALID LOG2 PUSH5 0x6970667358 0x22 SLT KECCAK256 BASEFEE BLOCKHASH 0xAE 0xE6 0xF7 0x5F 0xEB SSTORE 0xC7 BALANCE 0x4D CALLER DUP10 REVERT SWAP6 0xC2 PUSH1 0x9 0xCE 0xE5 0xA7 0xE2 0xFB DUP13 0x29 OR POP BALANCE DUP15 MULMOD 0xD1 0x4F PUSH5 0x736F6C6343 STOP ADDMOD GT STOP CALLER "},"methodIdentifiers":{"hasPassed(address)":"e5c7b616","isVerified(address)":"b9209e33","verifyMe()":"2a1e2f38"}}}}}