{
  "_format": "hh-sol-artifact-1",
  "contractName": "GameStub",
  "sourceName": "contracts/GameStub.sol",
  "abi": [
    {
      "inputs": [
        {
          "internalType": "address",
          "name": "_identityContract",
          "type": "address"
        }
      ],
      "stateMutability": "nonpayable",
      "type": "constructor"
    },
    {
      "anonymous": false,
      "inputs": [
        {
          "indexed": true,
          "internalType": "address",
          "name": "user",
          "type": "address"
        }
      ],
      "name": "RoomEntered",
      "type": "event"
    },
    {
      "inputs": [],
      "name": "enterRoom",
      "outputs": [],
      "stateMutability": "nonpayable",
      "type": "function"
    },
    {
      "inputs": [
        {
          "internalType": "address",
          "name": "",
          "type": "address"
        }
      ],
      "name": "hasEntered",
      "outputs": [
        {
          "internalType": "bool",
          "name": "",
          "type": "bool"
        }
      ],
      "stateMutability": "view",
      "type": "function"
    },
    {
      "inputs": [],
      "name": "identityContract",
      "outputs": [
        {
          "internalType": "contract IIdentity",
          "name": "",
          "type": "address"
        }
      ],
      "stateMutability": "view",
      "type": "function"
    }
  ],
  "bytecode": "0x608060405234801561001057600080fd5b506040516105e43803806105e4833981810160405281019061003291906100db565b806000806101000a81548173ffffffffffffffffffffffffffffffffffffffff021916908373ffffffffffffffffffffffffffffffffffffffff16021790555050610108565b600080fd5b600073ffffffffffffffffffffffffffffffffffffffff82169050919050565b60006100a88261007d565b9050919050565b6100b88161009d565b81146100c357600080fd5b50565b6000815190506100d5816100af565b92915050565b6000602082840312156100f1576100f0610078565b5b60006100ff848285016100c6565b91505092915050565b6104cd806101176000396000f3fe608060405234801561001057600080fd5b50600436106100415760003560e01c806318be04191461004657806324d70dea1461005057806367031bae14610080575b600080fd5b61004e61009e565b005b61006a600480360381019061006591906102ba565b610213565b6040516100779190610302565b60405180910390f35b610088610233565b604051610095919061037c565b60405180910390f35b60008054906101000a900473ffffffffffffffffffffffffffffffffffffffff1673ffffffffffffffffffffffffffffffffffffffff1663e5c7b616336040518263ffffffff1660e01b81526004016100f791906103a6565b602060405180830381865afa158015610114573d6000803e3d6000fd5b505050506040513d601f19601f8201168201806040525081019061013891906103ed565b610177576040517f08c379a000000000000000000000000000000000000000000000000000000000815260040161016e90610477565b60405180910390fd5b60018060003373ffffffffffffffffffffffffffffffffffffffff1673ffffffffffffffffffffffffffffffffffffffff16815260200190815260200160002060006101000a81548160ff0219169083151502179055503373ffffffffffffffffffffffffffffffffffffffff167f1bfb681236c90ef96aa18ab3c64d2a1f26002f4fac376d7dc940e81709a4bbfc60405160405180910390a2565b60016020528060005260406000206000915054906101000a900460ff1681565b60008054906101000a900473ffffffffffffffffffffffffffffffffffffffff1681565b600080fd5b600073ffffffffffffffffffffffffffffffffffffffff82169050919050565b60006102878261025c565b9050919050565b6102978161027c565b81146102a257600080fd5b50565b6000813590506102b48161028e565b92915050565b6000602082840312156102d0576102cf610257565b5b60006102de848285016102a5565b91505092915050565b60008115159050919050565b6102fc816102e7565b82525050565b600060208201905061031760008301846102f3565b92915050565b6000819050919050565b600061034261033d6103388461025c565b61031d565b61025c565b9050919050565b600061035482610327565b9050919050565b600061036682610349565b9050919050565b6103768161035b565b82525050565b6000602082019050610391600083018461036d565b92915050565b6103a08161027c565b82525050565b60006020820190506103bb6000830184610397565b92915050565b6103ca816102e7565b81146103d557600080fd5b50565b6000815190506103e7816103c1565b92915050565b60006020828403121561040357610402610257565b5b6000610411848285016103d8565b91505092915050565b600082825260208201905092915050565b7f4964656e74697479204e6f742056657269666965640000000000000000000000600082015250565b600061046160158361041a565b915061046c8261042b565b602082019050919050565b6000602082019050818103600083015261049081610454565b905091905056fea2646970667358221220b85e7871d6ef5c2be7f20440885f5e438a26c27d29ea21e1a32269e8187df2d764736f6c63430008110033",
  "linkReferences": {},
  "deployedLinkReferences": {}
}