{
  "_format": "hh3-artifact-1",
  "contractName": "TownToken",
  "sourceName": "contracts/towntopup.sol",
  "abi": [
    {
      "inputs": [
        {
          "internalType": "address",
          "name": "_owner",
          "type": "address"
        }
      ],
      "stateMutability": "nonpayable",
      "type": "constructor"
    },
    {
      "anonymous": false,
      "inputs": [
        {
          "indexed": true,
          "internalType": "address",
          "name": "owner",
          "type": "address"
        },
        {
          "indexed": true,
          "internalType": "address",
          "name": "spender",
          "type": "address"
        },
        {
          "indexed": false,
          "internalType": "uint256",
          "name": "value",
          "type": "uint256"
        }
      ],
      "name": "Approval",
      "type": "event"
    },
    {
      "anonymous": false,
      "inputs": [
        {
          "indexed": true,
          "internalType": "address",
          "name": "from",
          "type": "address"
        },
        {
          "indexed": true,
          "internalType": "address",
          "name": "to",
          "type": "address"
        },
        {
          "indexed": false,
          "internalType": "uint256",
          "name": "value",
          "type": "uint256"
        }
      ],
      "name": "Transfer",
      "type": "event"
    },
    {
      "inputs": [
        {
          "internalType": "address",
          "name": "",
          "type": "address"
        },
        {
          "internalType": "address",
          "name": "",
          "type": "address"
        }
      ],
      "name": "allowance",
      "outputs": [
        {
          "internalType": "uint256",
          "name": "",
          "type": "uint256"
        }
      ],
      "stateMutability": "view",
      "type": "function"
    },
    {
      "inputs": [
        {
          "internalType": "address",
          "name": "spender",
          "type": "address"
        },
        {
          "internalType": "uint256",
          "name": "value",
          "type": "uint256"
        }
      ],
      "name": "approve",
      "outputs": [
        {
          "internalType": "bool",
          "name": "",
          "type": "bool"
        }
      ],
      "stateMutability": "nonpayable",
      "type": "function"
    },
    {
      "inputs": [
        {
          "internalType": "address",
          "name": "",
          "type": "address"
        }
      ],
      "name": "balanceOf",
      "outputs": [
        {
          "internalType": "uint256",
          "name": "",
          "type": "uint256"
        }
      ],
      "stateMutability": "view",
      "type": "function"
    },
    {
      "inputs": [],
      "name": "decimals",
      "outputs": [
        {
          "internalType": "uint8",
          "name": "",
          "type": "uint8"
        }
      ],
      "stateMutability": "view",
      "type": "function"
    },
    {
      "inputs": [
        {
          "internalType": "address",
          "name": "",
          "type": "address"
        }
      ],
      "name": "isMinter",
      "outputs": [
        {
          "internalType": "bool",
          "name": "",
          "type": "bool"
        }
      ],
      "stateMutability": "view",
      "type": "function"
    },
    {
      "inputs": [
        {
          "internalType": "address",
          "name": "to",
          "type": "address"
        },
        {
          "internalType": "uint256",
          "name": "value",
          "type": "uint256"
        }
      ],
      "name": "mint",
      "outputs": [],
      "stateMutability": "nonpayable",
      "type": "function"
    },
    {
      "inputs": [],
      "name": "name",
      "outputs": [
        {
          "internalType": "string",
          "name": "",
          "type": "string"
        }
      ],
      "stateMutability": "view",
      "type": "function"
    },
    {
      "inputs": [],
      "name": "owner",
      "outputs": [
        {
          "internalType": "address",
          "name": "",
          "type": "address"
        }
      ],
      "stateMutability": "view",
      "type": "function"
    },
    {
      "inputs": [
        {
          "internalType": "address",
          "name": "minter",
          "type": "address"
        },
        {
          "internalType": "bool",
          "name": "allowed",
          "type": "bool"
        }
      ],
      "name": "setMinter",
      "outputs": [],
      "stateMutability": "nonpayable",
      "type": "function"
    },
    {
      "inputs": [],
      "name": "symbol",
      "outputs": [
        {
          "internalType": "string",
          "name": "",
          "type": "string"
        }
      ],
      "stateMutability": "view",
      "type": "function"
    },
    {
      "inputs": [],
      "name": "totalSupply",
      "outputs": [
        {
          "internalType": "uint256",
          "name": "",
          "type": "uint256"
        }
      ],
      "stateMutability": "view",
      "type": "function"
    },
    {
      "inputs": [
        {
          "internalType": "address",
          "name": "to",
          "type": "address"
        },
        {
          "internalType": "uint256",
          "name": "value",
          "type": "uint256"
        }
      ],
      "name": "transfer",
      "outputs": [
        {
          "internalType": "bool",
          "name": "",
          "type": "bool"
        }
      ],
      "stateMutability": "nonpayable",
      "type": "function"
    }
  ],
  "bytecode": "0x60c0604052600a6080908152692a37bbb7102a37b5b2b760b11b60a0525f906100289082610148565b506040805180820190915260048152632a27aba760e11b60208201526001906100519082610148565b506002805460ff1916601217905534801561006a575f80fd5b5060405161098c38038061098c83398101604081905261008991610203565b600680546001600160a01b0319166001600160a01b0392909216919091179055610230565b634e487b7160e01b5f52604160045260245ffd5b600181811c908216806100d657607f821691505b6020821081036100f457634e487b7160e01b5f52602260045260245ffd5b50919050565b601f821115610143575f81815260208120601f850160051c810160208610156101205750805b601f850160051c820191505b8181101561013f5782815560010161012c565b5050505b505050565b81516001600160401b03811115610161576101616100ae565b6101758161016f84546100c2565b846100fa565b602080601f8311600181146101a8575f84156101915750858301515b5f19600386901b1c1916600185901b17855561013f565b5f85815260208120601f198616915b828110156101d6578886015182559484019460019091019084016101b7565b50858210156101f357878501515f19600388901b60f8161c191681555b5050505050600190811b01905550565b5f60208284031215610213575f80fd5b81516001600160a01b0381168114610229575f80fd5b9392505050565b61074f8061023d5f395ff3fe608060405234801561000f575f80fd5b50600436106100b1575f3560e01c80638da5cb5b1161006e5780638da5cb5b1461016057806395d89b411461018b578063a9059cbb14610193578063aa271e1a146101a6578063cf456ae7146101c8578063dd62ed3e146101db575f80fd5b806306fdde03146100b5578063095ea7b3146100d357806318160ddd146100f6578063313ce5671461010d57806340c10f191461012c57806370a0823114610141575b5f80fd5b6100bd610205565b6040516100ca919061058f565b60405180910390f35b6100e66100e13660046105f5565b610290565b60405190151581526020016100ca565b6100ff60035481565b6040519081526020016100ca565b60025461011a9060ff1681565b60405160ff90911681526020016100ca565b61013f61013a3660046105f5565b6102fc565b005b6100ff61014f36600461061d565b60046020525f908152604090205481565b600654610173906001600160a01b031681565b6040516001600160a01b0390911681526020016100ca565b6100bd6103d2565b6100e66101a13660046105f5565b6103df565b6100e66101b436600461061d565b60076020525f908152604090205460ff1681565b61013f6101d636600461063d565b6103f4565b6100ff6101e9366004610676565b600560209081525f928352604080842090915290825290205481565b5f8054610211906106a7565b80601f016020809104026020016040519081016040528092919081815260200182805461023d906106a7565b80156102885780601f1061025f57610100808354040283529160200191610288565b820191905f5260205f20905b81548152906001019060200180831161026b57829003601f168201915b505050505081565b335f8181526005602090815260408083206001600160a01b038716808552925280832085905551919290917f8c5be1e5ebec7d5bd14f71427d1e84f3dd0314c0f7b2291e5b200ac8c7c3b925906102ea9086815260200190565b60405180910390a35060015b92915050565b335f9081526007602052604090205460ff1661034c5760405162461bcd60e51b815260206004820152600a6024820152692727aa2fa6a4a72a22a960b11b60448201526064015b60405180910390fd5b8060035f82825461035d91906106f3565b90915550506001600160a01b0382165f90815260046020526040812080548392906103899084906106f3565b90915550506040518181526001600160a01b038316905f907fddf252ad1be2c89b69c2b068fc378daa952ba7f163c4a11628f55a4df523b3ef9060200160405180910390a35050565b60018054610211906106a7565b5f6103eb338484610464565b50600192915050565b6006546001600160a01b0316331461043a5760405162461bcd60e51b81526020600482015260096024820152682727aa2fa7aba722a960b91b6044820152606401610343565b6001600160a01b03919091165f908152600760205260409020805460ff1916911515919091179055565b6001600160a01b0382166104a45760405162461bcd60e51b81526020600482015260076024820152665a45524f5f544f60c81b6044820152606401610343565b6001600160a01b0383165f90815260046020526040902054818110156104f65760405162461bcd60e51b815260206004820152600760248201526642414c414e434560c81b6044820152606401610343565b6105008282610706565b6001600160a01b038086165f9081526004602052604080822093909355908516815290812080548492906105359084906106f3565b92505081905550826001600160a01b0316846001600160a01b03167fddf252ad1be2c89b69c2b068fc378daa952ba7f163c4a11628f55a4df523b3ef8460405161058191815260200190565b60405180910390a350505050565b5f6020808352835180828501525f5b818110156105ba5785810183015185820160400152820161059e565b505f604082860101526040601f19601f8301168501019250505092915050565b80356001600160a01b03811681146105f0575f80fd5b919050565b5f8060408385031215610606575f80fd5b61060f836105da565b946020939093013593505050565b5f6020828403121561062d575f80fd5b610636826105da565b9392505050565b5f806040838503121561064e575f80fd5b610657836105da565b91506020830135801515811461066b575f80fd5b809150509250929050565b5f8060408385031215610687575f80fd5b610690836105da565b915061069e602084016105da565b90509250929050565b600181811c908216806106bb57607f821691505b6020821081036106d957634e487b7160e01b5f52602260045260245ffd5b50919050565b634e487b7160e01b5f52601160045260245ffd5b808201808211156102f6576102f66106df565b818103818111156102f6576102f66106df56fea26469706673582212209608e5708ebed67ae71b80ca0bfaf9da8109535a57a69a98a3281ff5eae3a6a964736f6c63430008140033",
  "linkReferences": {},
  "deployedLinkReferences": {},
  "immutableReferences": {},
  "inputSourceName": "project/contracts/towntopup.sol",
  "buildInfoId": "solc-0_8_20-588b4dda1a739697bba9e8e53923f972237f646a"
}