{
  "_format": "hh3-artifact-1",
  "contractName": "TownTopUpNative",
  "sourceName": "contracts/TownTopUpNative.sol",
  "abi": [
    {
      "inputs": [],
      "stateMutability": "nonpayable",
      "type": "constructor"
    },
    {
      "anonymous": false,
      "inputs": [
        {
          "indexed": true,
          "internalType": "address",
          "name": "user",
          "type": "address"
        },
        {
          "indexed": false,
          "internalType": "uint256",
          "name": "mntAmount",
          "type": "uint256"
        },
        {
          "indexed": false,
          "internalType": "uint256",
          "name": "townAmount",
          "type": "uint256"
        }
      ],
      "name": "Bought",
      "type": "event"
    },
    {
      "anonymous": false,
      "inputs": [
        {
          "indexed": true,
          "internalType": "address",
          "name": "to",
          "type": "address"
        },
        {
          "indexed": false,
          "internalType": "uint256",
          "name": "amount",
          "type": "uint256"
        }
      ],
      "name": "Withdrawn",
      "type": "event"
    },
    {
      "inputs": [],
      "name": "RATE",
      "outputs": [
        {
          "internalType": "uint256",
          "name": "",
          "type": "uint256"
        }
      ],
      "stateMutability": "view",
      "type": "function"
    },
    {
      "inputs": [],
      "name": "buyTOWN",
      "outputs": [],
      "stateMutability": "payable",
      "type": "function"
    },
    {
      "inputs": [],
      "name": "getBalance",
      "outputs": [
        {
          "internalType": "uint256",
          "name": "",
          "type": "uint256"
        }
      ],
      "stateMutability": "view",
      "type": "function"
    },
    {
      "inputs": [],
      "name": "owner",
      "outputs": [
        {
          "internalType": "address",
          "name": "",
          "type": "address"
        }
      ],
      "stateMutability": "view",
      "type": "function"
    },
    {
      "inputs": [],
      "name": "town",
      "outputs": [
        {
          "internalType": "contract TownTokenNative",
          "name": "",
          "type": "address"
        }
      ],
      "stateMutability": "view",
      "type": "function"
    },
    {
      "inputs": [
        {
          "internalType": "address payable",
          "name": "to",
          "type": "address"
        },
        {
          "internalType": "uint256",
          "name": "amount",
          "type": "uint256"
        }
      ],
      "name": "withdraw",
      "outputs": [],
      "stateMutability": "nonpayable",
      "type": "function"
    },
    {
      "stateMutability": "payable",
      "type": "receive"
    }
  ],
  "bytecode": "0x60a060405234801561000f575f80fd5b505f80546001600160a01b03191633178155604051309061002f906100c2565b6001600160a01b039091168152602001604051809103905ff080158015610058573d5f803e3d5ffd5b506001600160a01b038116608081905260405163cf456ae760e01b8152306004820152600160248201529192509063cf456ae7906044015f604051808303815f87803b1580156100a6575f80fd5b505af11580156100b8573d5f803e3d5ffd5b50505050506100cf565b610a948061055a83390190565b60805161046c6100ee5f395f81816101070152610196015261046c5ff3fe608060405260043610610057575f3560e01c806312065fe0146100625780633274327614610083578063664e97041461008d5780638da5cb5b146100a1578063f3fef3a3146100d7578063f5f3468f146100f6575f80fd5b3661005e57005b5f80fd5b34801561006d575f80fd5b50475b6040519081526020015b60405180910390f35b61008b610129565b005b348015610098575f80fd5b50610070603281565b3480156100ac575f80fd5b505f546100bf906001600160a01b031681565b6040516001600160a01b03909116815260200161007a565b3480156100e2575f80fd5b5061008b6100f13660046103d8565b610233565b348015610101575f80fd5b506100bf7f000000000000000000000000000000000000000000000000000000000000000081565b5f341161016b5760405162461bcd60e51b815260206004820152600b60248201526a16915493d7d05353d5539560aa1b60448201526064015b60405180910390fd5b5f61017760323461040d565b6040516340c10f1960e01b8152336004820152602481018290529091507f00000000000000000000000000000000000000000000000000000000000000006001600160a01b0316906340c10f19906044015f604051808303815f87803b1580156101df575f80fd5b505af11580156101f1573d5f803e3d5ffd5b505060408051348152602081018590523393507fa9a40dec7a304e5915d11358b968c1e8d365992abf20f82285d1df1b30c8e24c92500160405180910390a250565b5f546001600160a01b031633146102785760405162461bcd60e51b81526020600482015260096024820152682727aa2fa7aba722a960b91b6044820152606401610162565b6001600160a01b0382166102b85760405162461bcd60e51b81526020600482015260076024820152665a45524f5f544f60c81b6044820152606401610162565b804710156102ff5760405162461bcd60e51b8152602060048201526014602482015273494e53554646494349454e545f42414c414e434560601b6044820152606401610162565b5f826001600160a01b0316826040515f6040518083038185875af1925050503d805f8114610348576040519150601f19603f3d011682016040523d82523d5f602084013e61034d565b606091505b50509050806103905760405162461bcd60e51b815260206004820152600f60248201526e1514905394d1915497d19052531151608a1b6044820152606401610162565b826001600160a01b03167f7084f5476618d8e60b11ef0d7d3f06914655adb8793e28ff7f018d4c76d505d5836040516103cb91815260200190565b60405180910390a2505050565b5f80604083850312156103e9575f80fd5b82356001600160a01b03811681146103ff575f80fd5b946020939093013593505050565b808202811582820484141761043057634e487b7160e01b5f52601160045260245ffd5b9291505056fea264697066735822122052d2b5b71550d3b9b85b7a1736cf7d511f397e84c7e407d6ba0760c68c45a04264736f6c6343000814003360c0604052600a6080908152692a37bbb7102a37b5b2b760b11b60a0525f906100289082610148565b506040805180820190915260048152632a27aba760e11b60208201526001906100519082610148565b506002805460ff1916601217905534801561006a575f80fd5b50604051610a94380380610a9483398101604081905261008991610203565b600680546001600160a01b0319166001600160a01b0392909216919091179055610230565b634e487b7160e01b5f52604160045260245ffd5b600181811c908216806100d657607f821691505b6020821081036100f457634e487b7160e01b5f52602260045260245ffd5b50919050565b601f821115610143575f81815260208120601f850160051c810160208610156101205750805b601f850160051c820191505b8181101561013f5782815560010161012c565b5050505b505050565b81516001600160401b03811115610161576101616100ae565b6101758161016f84546100c2565b846100fa565b602080601f8311600181146101a8575f84156101915750858301515b5f19600386901b1c1916600185901b17855561013f565b5f85815260208120601f198616915b828110156101d6578886015182559484019460019091019084016101b7565b50858210156101f357878501515f19600388901b60f8161c191681555b5050505050600190811b01905550565b5f60208284031215610213575f80fd5b81516001600160a01b0381168114610229575f80fd5b9392505050565b6108578061023d5f395ff3fe608060405234801561000f575f80fd5b50600436106100cb575f3560e01c806370a0823111610088578063a9059cbb11610063578063a9059cbb146101c0578063aa271e1a146101d3578063cf456ae7146101f5578063dd62ed3e14610208575f80fd5b806370a082311461016e5780638da5cb5b1461018d57806395d89b41146101b8575f80fd5b806306fdde03146100cf578063095ea7b3146100ed57806318160ddd1461011057806323b872dd14610127578063313ce5671461013a57806340c10f1914610159575b5f80fd5b6100d7610232565b6040516100e4919061065e565b60405180910390f35b6101006100fb3660046106c4565b6102bd565b60405190151581526020016100e4565b61011960035481565b6040519081526020016100e4565b6101006101353660046106ec565b610329565b6002546101479060ff1681565b60405160ff90911681526020016100e4565b61016c6101673660046106c4565b6103d0565b005b61011961017c366004610725565b60046020525f908152604090205481565b6006546101a0906001600160a01b031681565b6040516001600160a01b0390911681526020016100e4565b6100d76104a1565b6101006101ce3660046106c4565b6104ae565b6101006101e1366004610725565b60076020525f908152604090205460ff1681565b61016c610203366004610745565b6104c3565b61011961021636600461077e565b600560209081525f928352604080842090915290825290205481565b5f805461023e906107af565b80601f016020809104026020016040519081016040528092919081815260200182805461026a906107af565b80156102b55780601f1061028c576101008083540402835291602001916102b5565b820191905f5260205f20905b81548152906001019060200180831161029857829003601f168201915b505050505081565b335f8181526005602090815260408083206001600160a01b038716808552925280832085905551919290917f8c5be1e5ebec7d5bd14f71427d1e84f3dd0314c0f7b2291e5b200ac8c7c3b925906103179086815260200190565b60405180910390a35060015b92915050565b6001600160a01b0383165f9081526005602090815260408083203384529091528120548281101561038d5760405162461bcd60e51b8152602060048201526009602482015268414c4c4f57414e434560b81b60448201526064015b60405180910390fd5b61039783826107fb565b6001600160a01b0386165f9081526005602090815260408083203384529091529020556103c5858585610533565b506001949350505050565b335f9081526007602052604090205460ff1661041b5760405162461bcd60e51b815260206004820152600a6024820152692727aa2fa6a4a72a22a960b11b6044820152606401610384565b8060035f82825461042c919061080e565b90915550506001600160a01b0382165f908152600460205260408120805483929061045890849061080e565b90915550506040518181526001600160a01b038316905f907fddf252ad1be2c89b69c2b068fc378daa952ba7f163c4a11628f55a4df523b3ef9060200160405180910390a35050565b6001805461023e906107af565b5f6104ba338484610533565b50600192915050565b6006546001600160a01b031633146105095760405162461bcd60e51b81526020600482015260096024820152682727aa2fa7aba722a960b91b6044820152606401610384565b6001600160a01b03919091165f908152600760205260409020805460ff1916911515919091179055565b6001600160a01b0382166105735760405162461bcd60e51b81526020600482015260076024820152665a45524f5f544f60c81b6044820152606401610384565b6001600160a01b0383165f90815260046020526040902054818110156105c55760405162461bcd60e51b815260206004820152600760248201526642414c414e434560c81b6044820152606401610384565b6105cf82826107fb565b6001600160a01b038086165f90815260046020526040808220939093559085168152908120805484929061060490849061080e565b92505081905550826001600160a01b0316846001600160a01b03167fddf252ad1be2c89b69c2b068fc378daa952ba7f163c4a11628f55a4df523b3ef8460405161065091815260200190565b60405180910390a350505050565b5f6020808352835180828501525f5b818110156106895785810183015185820160400152820161066d565b505f604082860101526040601f19601f8301168501019250505092915050565b80356001600160a01b03811681146106bf575f80fd5b919050565b5f80604083850312156106d5575f80fd5b6106de836106a9565b946020939093013593505050565b5f805f606084860312156106fe575f80fd5b610707846106a9565b9250610715602085016106a9565b9150604084013590509250925092565b5f60208284031215610735575f80fd5b61073e826106a9565b9392505050565b5f8060408385031215610756575f80fd5b61075f836106a9565b915060208301358015158114610773575f80fd5b809150509250929050565b5f806040838503121561078f575f80fd5b610798836106a9565b91506107a6602084016106a9565b90509250929050565b600181811c908216806107c357607f821691505b6020821081036107e157634e487b7160e01b5f52602260045260245ffd5b50919050565b634e487b7160e01b5f52601160045260245ffd5b81810381811115610323576103236107e7565b80820180821115610323576103236107e756fea264697066735822122053323b535da430604bb605f4c31a7f7c8eaf0cea8a102d578e2f4870af4445f864736f6c63430008140033",
  "linkReferences": {},
  "deployedLinkReferences": {},
  "immutableReferences": {
    "278": [
      {
        "length": 32,
        "start": 263
      },
      {
        "length": 32,
        "start": 406
      }
    ]
  },
  "inputSourceName": "project/contracts/TownTopUpNative.sol",
  "buildInfoId": "solc-0_8_20-09afad14ce020d4167387f3485b8271136513b04"
}